{"contracts/Counter.sol":{"Counter":{"abi":[{"inputs":[{"internalType":"uint256","name":"a","type":"uint256"},{"internalType":"uint256","name":"b","type":"uint256"}],"name":"add","outputs":[{"internalType":"uint256","name":"","type":"uint256"}],"stateMutability":"nonpayable","type":"function"},{"inputs":[],"name":"allFunctions","outputs":[{"internalType":"uint256","name":"","type":"uint256"},{"internalType":"uint256","name":"","type":"uint256"},{"internalType":"uint256","name":"","type":"uint256"},{"internalType":"uint256","name":"","type":"uint256"}],"stateMutability":"view","type":"function"},{"inputs":[{"internalType":"uint256","name":"a","type":"uint256"},{"internalType":"uint256","name":"b","type":"uint256"}],"name":"divide","outputs":[{"internalType":"uint256","name":"","type":"uint256"}],"stateMutability":"nonpayable","type":"function"},{"inputs":[],"name":"divided","outputs":[{"internalType":"uint256","name":"","type":"uint256"}],"stateMutability":"view","type":"function"},{"inputs":[],"name":"multiplied","outputs":[{"internalType":"uint256","name":"","type":"uint256"}],"stateMutability":"view","type":"function"},{"inputs":[{"internalType":"uint256","name":"a","type":"uint256"},{"internalType":"uint256","name":"b","type":"uint256"}],"name":"multiply","outputs":[{"internalType":"uint256","name":"","type":"uint256"}],"stateMutability":"nonpayable","type":"function"},{"inputs":[{"internalType":"uint256","name":"a","type":"uint256"},{"internalType":"uint256","name":"b","type":"uint256"}],"name":"substract","outputs":[{"internalType":"uint256","name":"","type":"uint256"}],"stateMutability":"nonpayable","type":"function"},{"inputs":[],"name":"substracted","outputs":[{"internalType":"uint256","name":"","type":"uint256"}],"stateMutability":"view","type":"function"},{"inputs":[],"name":"total","outputs":[{"internalType":"uint256","name":"","type":"uint256"}],"stateMutability":"view","type":"function"}],"evm":{"bytecode":{"linkReferences":{},"object":"608060405234801561001057600080fd5b506102d6806100206000396000f3fe608060405234801561001057600080fd5b50600436106100935760003560e01c80635d4e1e5c116100665780635d4e1e5c146100d9578063771602f7146100ec578063902dd69e146100ff578063ac76681314610108578063f88e9fbf1461013457600080fd5b8063165c4a16146100985780632ddbd13a146100be57806334390d45146100c757806356469b6c146100d0575b600080fd5b6100ab6100a63660046101f8565b610147565b6040519081526020015b60405180910390f35b6100ab60005481565b6100ab60035481565b6100ab60015481565b6100ab6100e73660046101f8565b61015f565b6100ab6100fa3660046101f8565b610177565b6100ab60025481565b6000546001546002546003546040805194855260208501939093529183015260608201526080016100b5565b6100ab6101423660046101f8565b61018f565b60006101538284610230565b60028190559392505050565b600061016b828461024f565b60018190559392505050565b60006101838284610266565b60008190559392505050565b6000816101e25760405162461bcd60e51b815260206004820181905260248201527f4469766973696f6e206279207a65726f206973206e6f7420616c6c6f7765642e604482015260640160405180910390fd5b6101ec828461027e565b60038190559392505050565b6000806040838503121561020b57600080fd5b50508035926020909101359150565b634e487b7160e01b600052601160045260246000fd5b600081600019048311821515161561024a5761024a61021a565b500290565b6000828210156102615761026161021a565b500390565b600082198211156102795761027961021a565b500190565b60008261029b57634e487b7160e01b600052601260045260246000fd5b50049056fea2646970667358221220cc11742d174e1dedc08b0e6748dbc4c4e48ec63b0db3998565b14f6814b1a47a64736f6c63430008090033","opcodes":"PUSH1 0x80 PUSH1 0x40 MSTORE CALLVALUE DUP1 ISZERO PUSH2 0x10 JUMPI PUSH1 0x0 DUP1 REVERT JUMPDEST POP PUSH2 0x2D6 DUP1 PUSH2 0x20 PUSH1 0x0 CODECOPY PUSH1 0x0 RETURN INVALID PUSH1 0x80 PUSH1 0x40 MSTORE CALLVALUE DUP1 ISZERO PUSH2 0x10 JUMPI PUSH1 0x0 DUP1 REVERT JUMPDEST POP PUSH1 0x4 CALLDATASIZE LT PUSH2 0x93 JUMPI PUSH1 0x0 CALLDATALOAD PUSH1 0xE0 SHR DUP1 PUSH4 0x5D4E1E5C GT PUSH2 0x66 JUMPI DUP1 PUSH4 0x5D4E1E5C EQ PUSH2 0xD9 JUMPI DUP1 PUSH4 0x771602F7 EQ PUSH2 0xEC JUMPI DUP1 PUSH4 0x902DD69E EQ PUSH2 0xFF JUMPI DUP1 PUSH4 0xAC766813 EQ PUSH2 0x108 JUMPI DUP1 PUSH4 0xF88E9FBF EQ PUSH2 0x134 JUMPI PUSH1 0x0 DUP1 REVERT JUMPDEST DUP1 PUSH4 0x165C4A16 EQ PUSH2 0x98 JUMPI DUP1 PUSH4 0x2DDBD13A EQ PUSH2 0xBE JUMPI DUP1 PUSH4 0x34390D45 EQ PUSH2 0xC7 JUMPI DUP1 PUSH4 0x56469B6C EQ PUSH2 0xD0 JUMPI JUMPDEST PUSH1 0x0 DUP1 REVERT JUMPDEST PUSH2 0xAB PUSH2 0xA6 CALLDATASIZE PUSH1 0x4 PUSH2 0x1F8 JUMP JUMPDEST PUSH2 0x147 JUMP JUMPDEST PUSH1 0x40 MLOAD SWAP1 DUP2 MSTORE PUSH1 0x20 ADD JUMPDEST PUSH1 0x40 MLOAD DUP1 SWAP2 SUB SWAP1 RETURN JUMPDEST PUSH2 0xAB PUSH1 0x0 SLOAD DUP2 JUMP JUMPDEST PUSH2 0xAB PUSH1 0x3 SLOAD DUP2 JUMP JUMPDEST PUSH2 0xAB PUSH1 0x1 SLOAD DUP2 JUMP JUMPDEST PUSH2 0xAB PUSH2 0xE7 CALLDATASIZE PUSH1 0x4 PUSH2 0x1F8 JUMP JUMPDEST PUSH2 0x15F JUMP JUMPDEST PUSH2 0xAB PUSH2 0xFA CALLDATASIZE PUSH1 0x4 PUSH2 0x1F8 JUMP JUMPDEST PUSH2 0x177 JUMP JUMPDEST PUSH2 0xAB PUSH1 0x2 SLOAD DUP2 JUMP JUMPDEST PUSH1 0x0 SLOAD PUSH1 0x1 SLOAD PUSH1 0x2 SLOAD PUSH1 0x3 SLOAD PUSH1 0x40 DUP1 MLOAD SWAP5 DUP6 MSTORE PUSH1 0x20 DUP6 ADD SWAP4 SWAP1 SWAP4 MSTORE SWAP2 DUP4 ADD MSTORE PUSH1 0x60 DUP3 ADD MSTORE PUSH1 0x80 ADD PUSH2 0xB5 JUMP JUMPDEST PUSH2 0xAB PUSH2 0x142 CALLDATASIZE PUSH1 0x4 PUSH2 0x1F8 JUMP JUMPDEST PUSH2 0x18F JUMP JUMPDEST PUSH1 0x0 PUSH2 0x153 DUP3 DUP5 PUSH2 0x230 JUMP JUMPDEST PUSH1 0x2 DUP2 SWAP1 SSTORE SWAP4 SWAP3 POP POP POP JUMP JUMPDEST PUSH1 0x0 PUSH2 0x16B DUP3 DUP5 PUSH2 0x24F JUMP JUMPDEST PUSH1 0x1 DUP2 SWAP1 SSTORE SWAP4 SWAP3 POP POP POP JUMP JUMPDEST PUSH1 0x0 PUSH2 0x183 DUP3 DUP5 PUSH2 0x266 JUMP JUMPDEST PUSH1 0x0 DUP2 SWAP1 SSTORE SWAP4 SWAP3 POP POP POP JUMP JUMPDEST PUSH1 0x0 DUP2 PUSH2 0x1E2 JUMPI PUSH1 0x40 MLOAD PUSH3 0x461BCD PUSH1 0xE5 SHL DUP2 MSTORE PUSH1 0x20 PUSH1 0x4 DUP3 ADD DUP2 SWAP1 MSTORE PUSH1 0x24 DUP3 ADD MSTORE PUSH32 0x4469766973696F6E206279207A65726F206973206E6F7420616C6C6F7765642E PUSH1 0x44 DUP3 ADD MSTORE PUSH1 0x64 ADD PUSH1 0x40 MLOAD DUP1 SWAP2 SUB SWAP1 REVERT JUMPDEST PUSH2 0x1EC DUP3 DUP5 PUSH2 0x27E JUMP JUMPDEST PUSH1 0x3 DUP2 SWAP1 SSTORE SWAP4 SWAP3 POP POP POP JUMP JUMPDEST PUSH1 0x0 DUP1 PUSH1 0x40 DUP4 DUP6 SUB SLT ISZERO PUSH2 0x20B JUMPI PUSH1 0x0 DUP1 REVERT JUMPDEST POP POP DUP1 CALLDATALOAD SWAP3 PUSH1 0x20 SWAP1 SWAP2 ADD CALLDATALOAD SWAP2 POP JUMP JUMPDEST PUSH4 0x4E487B71 PUSH1 0xE0 SHL PUSH1 0x0 MSTORE PUSH1 0x11 PUSH1 0x4 MSTORE PUSH1 0x24 PUSH1 0x0 REVERT JUMPDEST PUSH1 0x0 DUP2 PUSH1 0x0 NOT DIV DUP4 GT DUP3 ISZERO ISZERO AND ISZERO PUSH2 0x24A JUMPI PUSH2 0x24A PUSH2 0x21A JUMP JUMPDEST POP MUL SWAP1 JUMP JUMPDEST PUSH1 0x0 DUP3 DUP3 LT ISZERO PUSH2 0x261 JUMPI PUSH2 0x261 PUSH2 0x21A JUMP JUMPDEST POP SUB SWAP1 JUMP JUMPDEST PUSH1 0x0 DUP3 NOT DUP3 GT ISZERO PUSH2 0x279 JUMPI PUSH2 0x279 PUSH2 0x21A JUMP JUMPDEST POP ADD SWAP1 JUMP JUMPDEST PUSH1 0x0 DUP3 PUSH2 0x29B JUMPI PUSH4 0x4E487B71 PUSH1 0xE0 SHL PUSH1 0x0 MSTORE PUSH1 0x12 PUSH1 0x4 MSTORE PUSH1 0x24 PUSH1 0x0 REVERT JUMPDEST POP DIV SWAP1 JUMP INVALID LOG2 PUSH5 0x6970667358 0x22 SLT KECCAK256 0xCC GT PUSH21 0x2D174E1DEDC08B0E6748DBC4C4E48EC63B0DB39985 PUSH6 0xB14F6814B1A4 PUSH27 0x64736F6C6343000809003300000000000000000000000000000000 "},"methodIdentifiers":{"add(uint256,uint256)":"771602f7","allFunctions()":"ac766813","divide(uint256,uint256)":"f88e9fbf","divided()":"34390d45","multiplied()":"902dd69e","multiply(uint256,uint256)":"165c4a16","substract(uint256,uint256)":"5d4e1e5c","substracted()":"56469b6c","total()":"2ddbd13a"}}}}}