{"contracts/Counter.sol":{"Counter":{"abi":[{"inputs":[{"internalType":"uint256","name":"a","type":"uint256"},{"internalType":"uint256","name":"b","type":"uint256"}],"name":"add","outputs":[{"internalType":"uint256","name":"","type":"uint256"}],"stateMutability":"nonpayable","type":"function"},{"inputs":[],"name":"allFunctions","outputs":[{"internalType":"uint256","name":"","type":"uint256"},{"internalType":"uint256","name":"","type":"uint256"},{"internalType":"uint256","name":"","type":"uint256"},{"internalType":"uint256","name":"","type":"uint256"}],"stateMutability":"view","type":"function"},{"inputs":[{"internalType":"uint256","name":"a","type":"uint256"},{"internalType":"uint256","name":"b","type":"uint256"}],"name":"divide","outputs":[{"internalType":"uint256","name":"","type":"uint256"}],"stateMutability":"nonpayable","type":"function"},{"inputs":[],"name":"divided","outputs":[{"internalType":"uint256","name":"","type":"uint256"}],"stateMutability":"view","type":"function"},{"inputs":[],"name":"multiplied","outputs":[{"internalType":"uint256","name":"","type":"uint256"}],"stateMutability":"view","type":"function"},{"inputs":[{"internalType":"uint256","name":"a","type":"uint256"},{"internalType":"uint256","name":"b","type":"uint256"}],"name":"multiply","outputs":[{"internalType":"uint256","name":"","type":"uint256"}],"stateMutability":"nonpayable","type":"function"},{"inputs":[{"internalType":"uint256","name":"a","type":"uint256"},{"internalType":"uint256","name":"b","type":"uint256"}],"name":"substract","outputs":[{"internalType":"uint256","name":"","type":"uint256"}],"stateMutability":"nonpayable","type":"function"},{"inputs":[],"name":"substracted","outputs":[{"internalType":"uint256","name":"","type":"uint256"}],"stateMutability":"view","type":"function"},{"inputs":[],"name":"total","outputs":[{"internalType":"uint256","name":"","type":"uint256"}],"stateMutability":"view","type":"function"}],"evm":{"bytecode":{"linkReferences":{},"object":"608060405234801561001057600080fd5b506105ad806100206000396000f3fe608060405234801561001057600080fd5b50600436106100935760003560e01c80635d4e1e5c116100665780635d4e1e5c14610122578063771602f714610152578063902dd69e14610182578063ac766813146101a0578063f88e9fbf146101c157610093565b8063165c4a16146100985780632ddbd13a146100c857806334390d45146100e657806356469b6c14610104575b600080fd5b6100b260048036038101906100ad9190610312565b6101f1565b6040516100bf9190610361565b60405180910390f35b6100d061020c565b6040516100dd9190610361565b60405180910390f35b6100ee610212565b6040516100fb9190610361565b60405180910390f35b61010c610218565b6040516101199190610361565b60405180910390f35b61013c60048036038101906101379190610312565b61021e565b6040516101499190610361565b60405180910390f35b61016c60048036038101906101679190610312565b610239565b6040516101799190610361565b60405180910390f35b61018a610254565b6040516101979190610361565b60405180910390f35b6101a861025a565b6040516101b8949392919061037c565b60405180910390f35b6101db60048036038101906101d69190610312565b61027a565b6040516101e89190610361565b60405180910390f35b600081836101ff91906103f0565b6002819055905092915050565b60005481565b60035481565b60015481565b6000818361022c9190610432565b6001819055905092915050565b600081836102479190610466565b6000819055905092915050565b60025481565b600080600080600054600154600254600354935093509350935090919293565b60008082036102be576040517f08c379a00000000000000000000000000000000000000000000000000000000081526004016102b5906104f7565b60405180910390fd5b81836102ca9190610546565b6003819055905092915050565b600080fd5b6000819050919050565b6102ef816102dc565b81146102fa57600080fd5b50565b60008135905061030c816102e6565b92915050565b60008060408385031215610329576103286102d7565b5b6000610337858286016102fd565b9250506020610348858286016102fd565b9150509250929050565b61035b816102dc565b82525050565b60006020820190506103766000830184610352565b92915050565b60006080820190506103916000830187610352565b61039e6020830186610352565b6103ab6040830185610352565b6103b86060830184610352565b95945050505050565b7f4e487b7100000000000000000000000000000000000000000000000000000000600052601160045260246000fd5b60006103fb826102dc565b9150610406836102dc565b9250828202610414816102dc565b9150828204841483151761042b5761042a6103c1565b5b5092915050565b600061043d826102dc565b9150610448836102dc565b92508282039050818111156104605761045f6103c1565b5b92915050565b6000610471826102dc565b915061047c836102dc565b9250828201905080821115610494576104936103c1565b5b92915050565b600082825260208201905092915050565b7f4469766973696f6e206279207a65726f206973206e6f7420616c6c6f7765642e600082015250565b60006104e160208361049a565b91506104ec826104ab565b602082019050919050565b60006020820190508181036000830152610510816104d4565b9050919050565b7f4e487b7100000000000000000000000000000000000000000000000000000000600052601260045260246000fd5b6000610551826102dc565b915061055c836102dc565b92508261056c5761056b610517565b5b82820490509291505056fea2646970667358221220c3d6cfe6517eab46889c686432a40f7b6b6798337c6fa90587222d1b8bc37ffb64736f6c63430008120033","opcodes":"PUSH1 0x80 PUSH1 0x40 MSTORE CALLVALUE DUP1 ISZERO PUSH2 0x10 JUMPI PUSH1 0x0 DUP1 REVERT JUMPDEST POP PUSH2 0x5AD DUP1 PUSH2 0x20 PUSH1 0x0 CODECOPY PUSH1 0x0 RETURN INVALID PUSH1 0x80 PUSH1 0x40 MSTORE CALLVALUE DUP1 ISZERO PUSH2 0x10 JUMPI PUSH1 0x0 DUP1 REVERT JUMPDEST POP PUSH1 0x4 CALLDATASIZE LT PUSH2 0x93 JUMPI PUSH1 0x0 CALLDATALOAD PUSH1 0xE0 SHR DUP1 PUSH4 0x5D4E1E5C GT PUSH2 0x66 JUMPI DUP1 PUSH4 0x5D4E1E5C EQ PUSH2 0x122 JUMPI DUP1 PUSH4 0x771602F7 EQ PUSH2 0x152 JUMPI DUP1 PUSH4 0x902DD69E EQ PUSH2 0x182 JUMPI DUP1 PUSH4 0xAC766813 EQ PUSH2 0x1A0 JUMPI DUP1 PUSH4 0xF88E9FBF EQ PUSH2 0x1C1 JUMPI PUSH2 0x93 JUMP JUMPDEST DUP1 PUSH4 0x165C4A16 EQ PUSH2 0x98 JUMPI DUP1 PUSH4 0x2DDBD13A EQ PUSH2 0xC8 JUMPI DUP1 PUSH4 0x34390D45 EQ PUSH2 0xE6 JUMPI DUP1 PUSH4 0x56469B6C EQ PUSH2 0x104 JUMPI JUMPDEST PUSH1 0x0 DUP1 REVERT JUMPDEST PUSH2 0xB2 PUSH1 0x4 DUP1 CALLDATASIZE SUB DUP2 ADD SWAP1 PUSH2 0xAD SWAP2 SWAP1 PUSH2 0x312 JUMP JUMPDEST PUSH2 0x1F1 JUMP JUMPDEST PUSH1 0x40 MLOAD PUSH2 0xBF SWAP2 SWAP1 PUSH2 0x361 JUMP JUMPDEST PUSH1 0x40 MLOAD DUP1 SWAP2 SUB SWAP1 RETURN JUMPDEST PUSH2 0xD0 PUSH2 0x20C JUMP JUMPDEST PUSH1 0x40 MLOAD PUSH2 0xDD SWAP2 SWAP1 PUSH2 0x361 JUMP JUMPDEST PUSH1 0x40 MLOAD DUP1 SWAP2 SUB SWAP1 RETURN JUMPDEST PUSH2 0xEE PUSH2 0x212 JUMP JUMPDEST PUSH1 0x40 MLOAD PUSH2 0xFB SWAP2 SWAP1 PUSH2 0x361 JUMP JUMPDEST PUSH1 0x40 MLOAD DUP1 SWAP2 SUB SWAP1 RETURN JUMPDEST PUSH2 0x10C PUSH2 0x218 JUMP JUMPDEST PUSH1 0x40 MLOAD PUSH2 0x119 SWAP2 SWAP1 PUSH2 0x361 JUMP JUMPDEST PUSH1 0x40 MLOAD DUP1 SWAP2 SUB SWAP1 RETURN JUMPDEST PUSH2 0x13C PUSH1 0x4 DUP1 CALLDATASIZE SUB DUP2 ADD SWAP1 PUSH2 0x137 SWAP2 SWAP1 PUSH2 0x312 JUMP JUMPDEST PUSH2 0x21E JUMP JUMPDEST PUSH1 0x40 MLOAD PUSH2 0x149 SWAP2 SWAP1 PUSH2 0x361 JUMP JUMPDEST PUSH1 0x40 MLOAD DUP1 SWAP2 SUB SWAP1 RETURN JUMPDEST PUSH2 0x16C PUSH1 0x4 DUP1 CALLDATASIZE SUB DUP2 ADD SWAP1 PUSH2 0x167 SWAP2 SWAP1 PUSH2 0x312 JUMP JUMPDEST PUSH2 0x239 JUMP JUMPDEST PUSH1 0x40 MLOAD PUSH2 0x179 SWAP2 SWAP1 PUSH2 0x361 JUMP JUMPDEST PUSH1 0x40 MLOAD DUP1 SWAP2 SUB SWAP1 RETURN JUMPDEST PUSH2 0x18A PUSH2 0x254 JUMP JUMPDEST PUSH1 0x40 MLOAD PUSH2 0x197 SWAP2 SWAP1 PUSH2 0x361 JUMP JUMPDEST PUSH1 0x40 MLOAD DUP1 SWAP2 SUB SWAP1 RETURN JUMPDEST PUSH2 0x1A8 PUSH2 0x25A JUMP JUMPDEST PUSH1 0x40 MLOAD PUSH2 0x1B8 SWAP5 SWAP4 SWAP3 SWAP2 SWAP1 PUSH2 0x37C JUMP JUMPDEST PUSH1 0x40 MLOAD DUP1 SWAP2 SUB SWAP1 RETURN JUMPDEST PUSH2 0x1DB PUSH1 0x4 DUP1 CALLDATASIZE SUB DUP2 ADD SWAP1 PUSH2 0x1D6 SWAP2 SWAP1 PUSH2 0x312 JUMP JUMPDEST PUSH2 0x27A JUMP JUMPDEST PUSH1 0x40 MLOAD PUSH2 0x1E8 SWAP2 SWAP1 PUSH2 0x361 JUMP JUMPDEST PUSH1 0x40 MLOAD DUP1 SWAP2 SUB SWAP1 RETURN JUMPDEST PUSH1 0x0 DUP2 DUP4 PUSH2 0x1FF SWAP2 SWAP1 PUSH2 0x3F0 JUMP JUMPDEST PUSH1 0x2 DUP2 SWAP1 SSTORE SWAP1 POP SWAP3 SWAP2 POP POP JUMP JUMPDEST PUSH1 0x0 SLOAD DUP2 JUMP JUMPDEST PUSH1 0x3 SLOAD DUP2 JUMP JUMPDEST PUSH1 0x1 SLOAD DUP2 JUMP JUMPDEST PUSH1 0x0 DUP2 DUP4 PUSH2 0x22C SWAP2 SWAP1 PUSH2 0x432 JUMP JUMPDEST PUSH1 0x1 DUP2 SWAP1 SSTORE SWAP1 POP SWAP3 SWAP2 POP POP JUMP JUMPDEST PUSH1 0x0 DUP2 DUP4 PUSH2 0x247 SWAP2 SWAP1 PUSH2 0x466 JUMP JUMPDEST PUSH1 0x0 DUP2 SWAP1 SSTORE SWAP1 POP SWAP3 SWAP2 POP POP JUMP JUMPDEST PUSH1 0x2 SLOAD DUP2 JUMP JUMPDEST PUSH1 0x0 DUP1 PUSH1 0x0 DUP1 PUSH1 0x0 SLOAD PUSH1 0x1 SLOAD PUSH1 0x2 SLOAD PUSH1 0x3 SLOAD SWAP4 POP SWAP4 POP SWAP4 POP SWAP4 POP SWAP1 SWAP2 SWAP3 SWAP4 JUMP JUMPDEST PUSH1 0x0 DUP1 DUP3 SUB PUSH2 0x2BE JUMPI PUSH1 0x40 MLOAD PUSH32 0x8C379A000000000000000000000000000000000000000000000000000000000 DUP2 MSTORE PUSH1 0x4 ADD PUSH2 0x2B5 SWAP1 PUSH2 0x4F7 JUMP JUMPDEST PUSH1 0x40 MLOAD DUP1 SWAP2 SUB SWAP1 REVERT JUMPDEST DUP2 DUP4 PUSH2 0x2CA SWAP2 SWAP1 PUSH2 0x546 JUMP JUMPDEST PUSH1 0x3 DUP2 SWAP1 SSTORE SWAP1 POP SWAP3 SWAP2 POP POP JUMP JUMPDEST PUSH1 0x0 DUP1 REVERT JUMPDEST PUSH1 0x0 DUP2 SWAP1 POP SWAP2 SWAP1 POP JUMP JUMPDEST PUSH2 0x2EF DUP2 PUSH2 0x2DC JUMP JUMPDEST DUP2 EQ PUSH2 0x2FA JUMPI PUSH1 0x0 DUP1 REVERT JUMPDEST POP JUMP JUMPDEST PUSH1 0x0 DUP2 CALLDATALOAD SWAP1 POP PUSH2 0x30C DUP2 PUSH2 0x2E6 JUMP JUMPDEST SWAP3 SWAP2 POP POP JUMP JUMPDEST PUSH1 0x0 DUP1 PUSH1 0x40 DUP4 DUP6 SUB SLT ISZERO PUSH2 0x329 JUMPI PUSH2 0x328 PUSH2 0x2D7 JUMP JUMPDEST JUMPDEST PUSH1 0x0 PUSH2 0x337 DUP6 DUP3 DUP7 ADD PUSH2 0x2FD JUMP JUMPDEST SWAP3 POP POP PUSH1 0x20 PUSH2 0x348 DUP6 DUP3 DUP7 ADD PUSH2 0x2FD JUMP JUMPDEST SWAP2 POP POP SWAP3 POP SWAP3 SWAP1 POP JUMP JUMPDEST PUSH2 0x35B DUP2 PUSH2 0x2DC JUMP JUMPDEST DUP3 MSTORE POP POP JUMP JUMPDEST PUSH1 0x0 PUSH1 0x20 DUP3 ADD SWAP1 POP PUSH2 0x376 PUSH1 0x0 DUP4 ADD DUP5 PUSH2 0x352 JUMP JUMPDEST SWAP3 SWAP2 POP POP JUMP JUMPDEST PUSH1 0x0 PUSH1 0x80 DUP3 ADD SWAP1 POP PUSH2 0x391 PUSH1 0x0 DUP4 ADD DUP8 PUSH2 0x352 JUMP JUMPDEST PUSH2 0x39E PUSH1 0x20 DUP4 ADD DUP7 PUSH2 0x352 JUMP JUMPDEST PUSH2 0x3AB PUSH1 0x40 DUP4 ADD DUP6 PUSH2 0x352 JUMP JUMPDEST PUSH2 0x3B8 PUSH1 0x60 DUP4 ADD DUP5 PUSH2 0x352 JUMP JUMPDEST SWAP6 SWAP5 POP POP POP POP POP JUMP JUMPDEST PUSH32 0x4E487B7100000000000000000000000000000000000000000000000000000000 PUSH1 0x0 MSTORE PUSH1 0x11 PUSH1 0x4 MSTORE PUSH1 0x24 PUSH1 0x0 REVERT JUMPDEST PUSH1 0x0 PUSH2 0x3FB DUP3 PUSH2 0x2DC JUMP JUMPDEST SWAP2 POP PUSH2 0x406 DUP4 PUSH2 0x2DC JUMP JUMPDEST SWAP3 POP DUP3 DUP3 MUL PUSH2 0x414 DUP2 PUSH2 0x2DC JUMP JUMPDEST SWAP2 POP DUP3 DUP3 DIV DUP5 EQ DUP4 ISZERO OR PUSH2 0x42B JUMPI PUSH2 0x42A PUSH2 0x3C1 JUMP JUMPDEST JUMPDEST POP SWAP3 SWAP2 POP POP JUMP JUMPDEST PUSH1 0x0 PUSH2 0x43D DUP3 PUSH2 0x2DC JUMP JUMPDEST SWAP2 POP PUSH2 0x448 DUP4 PUSH2 0x2DC JUMP JUMPDEST SWAP3 POP DUP3 DUP3 SUB SWAP1 POP DUP2 DUP2 GT ISZERO PUSH2 0x460 JUMPI PUSH2 0x45F PUSH2 0x3C1 JUMP JUMPDEST JUMPDEST SWAP3 SWAP2 POP POP JUMP JUMPDEST PUSH1 0x0 PUSH2 0x471 DUP3 PUSH2 0x2DC JUMP JUMPDEST SWAP2 POP PUSH2 0x47C DUP4 PUSH2 0x2DC JUMP JUMPDEST SWAP3 POP DUP3 DUP3 ADD SWAP1 POP DUP1 DUP3 GT ISZERO PUSH2 0x494 JUMPI PUSH2 0x493 PUSH2 0x3C1 JUMP JUMPDEST JUMPDEST SWAP3 SWAP2 POP POP JUMP JUMPDEST PUSH1 0x0 DUP3 DUP3 MSTORE PUSH1 0x20 DUP3 ADD SWAP1 POP SWAP3 SWAP2 POP POP JUMP JUMPDEST PUSH32 0x4469766973696F6E206279207A65726F206973206E6F7420616C6C6F7765642E PUSH1 0x0 DUP3 ADD MSTORE POP JUMP JUMPDEST PUSH1 0x0 PUSH2 0x4E1 PUSH1 0x20 DUP4 PUSH2 0x49A JUMP JUMPDEST SWAP2 POP PUSH2 0x4EC DUP3 PUSH2 0x4AB JUMP JUMPDEST PUSH1 0x20 DUP3 ADD SWAP1 POP SWAP2 SWAP1 POP JUMP JUMPDEST PUSH1 0x0 PUSH1 0x20 DUP3 ADD SWAP1 POP DUP2 DUP2 SUB PUSH1 0x0 DUP4 ADD MSTORE PUSH2 0x510 DUP2 PUSH2 0x4D4 JUMP JUMPDEST SWAP1 POP SWAP2 SWAP1 POP JUMP JUMPDEST PUSH32 0x4E487B7100000000000000000000000000000000000000000000000000000000 PUSH1 0x0 MSTORE PUSH1 0x12 PUSH1 0x4 MSTORE PUSH1 0x24 PUSH1 0x0 REVERT JUMPDEST PUSH1 0x0 PUSH2 0x551 DUP3 PUSH2 0x2DC JUMP JUMPDEST SWAP2 POP PUSH2 0x55C DUP4 PUSH2 0x2DC JUMP JUMPDEST SWAP3 POP DUP3 PUSH2 0x56C JUMPI PUSH2 0x56B PUSH2 0x517 JUMP JUMPDEST JUMPDEST DUP3 DUP3 DIV SWAP1 POP SWAP3 SWAP2 POP POP JUMP INVALID LOG2 PUSH5 0x6970667358 0x22 SLT KECCAK256 0xC3 0xD6 0xCF 0xE6 MLOAD PUSH31 0xAB46889C686432A40F7B6B6798337C6FA90587222D1B8BC37FFB64736F6C63 NUMBER STOP ADDMOD SLT STOP CALLER "},"methodIdentifiers":{"add(uint256,uint256)":"771602f7","allFunctions()":"ac766813","divide(uint256,uint256)":"f88e9fbf","divided()":"34390d45","multiplied()":"902dd69e","multiply(uint256,uint256)":"165c4a16","substract(uint256,uint256)":"5d4e1e5c","substracted()":"56469b6c","total()":"2ddbd13a"}}}}}