{
  "_format": "hh-sol-artifact-1",
  "contractName": "Counter",
  "sourceName": "contracts/Counter.sol",
  "abi": [
    {
      "inputs": [
        {
          "internalType": "uint256",
          "name": "a",
          "type": "uint256"
        },
        {
          "internalType": "uint256",
          "name": "b",
          "type": "uint256"
        }
      ],
      "name": "add",
      "outputs": [
        {
          "internalType": "uint256",
          "name": "",
          "type": "uint256"
        }
      ],
      "stateMutability": "nonpayable",
      "type": "function"
    },
    {
      "inputs": [],
      "name": "allFunctions",
      "outputs": [
        {
          "internalType": "uint256",
          "name": "",
          "type": "uint256"
        },
        {
          "internalType": "uint256",
          "name": "",
          "type": "uint256"
        },
        {
          "internalType": "uint256",
          "name": "",
          "type": "uint256"
        },
        {
          "internalType": "uint256",
          "name": "",
          "type": "uint256"
        }
      ],
      "stateMutability": "view",
      "type": "function"
    },
    {
      "inputs": [
        {
          "internalType": "uint256",
          "name": "a",
          "type": "uint256"
        },
        {
          "internalType": "uint256",
          "name": "b",
          "type": "uint256"
        }
      ],
      "name": "divide",
      "outputs": [
        {
          "internalType": "uint256",
          "name": "",
          "type": "uint256"
        }
      ],
      "stateMutability": "nonpayable",
      "type": "function"
    },
    {
      "inputs": [],
      "name": "divided",
      "outputs": [
        {
          "internalType": "uint256",
          "name": "",
          "type": "uint256"
        }
      ],
      "stateMutability": "view",
      "type": "function"
    },
    {
      "inputs": [],
      "name": "multiplied",
      "outputs": [
        {
          "internalType": "uint256",
          "name": "",
          "type": "uint256"
        }
      ],
      "stateMutability": "view",
      "type": "function"
    },
    {
      "inputs": [
        {
          "internalType": "uint256",
          "name": "a",
          "type": "uint256"
        },
        {
          "internalType": "uint256",
          "name": "b",
          "type": "uint256"
        }
      ],
      "name": "multiply",
      "outputs": [
        {
          "internalType": "uint256",
          "name": "",
          "type": "uint256"
        }
      ],
      "stateMutability": "nonpayable",
      "type": "function"
    },
    {
      "inputs": [
        {
          "internalType": "uint256",
          "name": "a",
          "type": "uint256"
        },
        {
          "internalType": "uint256",
          "name": "b",
          "type": "uint256"
        }
      ],
      "name": "substract",
      "outputs": [
        {
          "internalType": "uint256",
          "name": "",
          "type": "uint256"
        }
      ],
      "stateMutability": "nonpayable",
      "type": "function"
    },
    {
      "inputs": [],
      "name": "substracted",
      "outputs": [
        {
          "internalType": "uint256",
          "name": "",
          "type": "uint256"
        }
      ],
      "stateMutability": "view",
      "type": "function"
    },
    {
      "inputs": [],
      "name": "total",
      "outputs": [
        {
          "internalType": "uint256",
          "name": "",
          "type": "uint256"
        }
      ],
      "stateMutability": "view",
      "type": "function"
    }
  ],
  "bytecode": "0x608060405234801561001057600080fd5b506105ad806100206000396000f3fe608060405234801561001057600080fd5b50600436106100935760003560e01c80635d4e1e5c116100665780635d4e1e5c14610122578063771602f714610152578063902dd69e14610182578063ac766813146101a0578063f88e9fbf146101c157610093565b8063165c4a16146100985780632ddbd13a146100c857806334390d45146100e657806356469b6c14610104575b600080fd5b6100b260048036038101906100ad9190610312565b6101f1565b6040516100bf9190610361565b60405180910390f35b6100d061020c565b6040516100dd9190610361565b60405180910390f35b6100ee610212565b6040516100fb9190610361565b60405180910390f35b61010c610218565b6040516101199190610361565b60405180910390f35b61013c60048036038101906101379190610312565b61021e565b6040516101499190610361565b60405180910390f35b61016c60048036038101906101679190610312565b610239565b6040516101799190610361565b60405180910390f35b61018a610254565b6040516101979190610361565b60405180910390f35b6101a861025a565b6040516101b8949392919061037c565b60405180910390f35b6101db60048036038101906101d69190610312565b61027a565b6040516101e89190610361565b60405180910390f35b600081836101ff91906103f0565b6002819055905092915050565b60005481565b60035481565b60015481565b6000818361022c9190610432565b6001819055905092915050565b600081836102479190610466565b6000819055905092915050565b60025481565b600080600080600054600154600254600354935093509350935090919293565b60008082036102be576040517f08c379a00000000000000000000000000000000000000000000000000000000081526004016102b5906104f7565b60405180910390fd5b81836102ca9190610546565b6003819055905092915050565b600080fd5b6000819050919050565b6102ef816102dc565b81146102fa57600080fd5b50565b60008135905061030c816102e6565b92915050565b60008060408385031215610329576103286102d7565b5b6000610337858286016102fd565b9250506020610348858286016102fd565b9150509250929050565b61035b816102dc565b82525050565b60006020820190506103766000830184610352565b92915050565b60006080820190506103916000830187610352565b61039e6020830186610352565b6103ab6040830185610352565b6103b86060830184610352565b95945050505050565b7f4e487b7100000000000000000000000000000000000000000000000000000000600052601160045260246000fd5b60006103fb826102dc565b9150610406836102dc565b9250828202610414816102dc565b9150828204841483151761042b5761042a6103c1565b5b5092915050565b600061043d826102dc565b9150610448836102dc565b92508282039050818111156104605761045f6103c1565b5b92915050565b6000610471826102dc565b915061047c836102dc565b9250828201905080821115610494576104936103c1565b5b92915050565b600082825260208201905092915050565b7f4469766973696f6e206279207a65726f206973206e6f7420616c6c6f7765642e600082015250565b60006104e160208361049a565b91506104ec826104ab565b602082019050919050565b60006020820190508181036000830152610510816104d4565b9050919050565b7f4e487b7100000000000000000000000000000000000000000000000000000000600052601260045260246000fd5b6000610551826102dc565b915061055c836102dc565b92508261056c5761056b610517565b5b82820490509291505056fea2646970667358221220c3d6cfe6517eab46889c686432a40f7b6b6798337c6fa90587222d1b8bc37ffb64736f6c63430008120033",
  "linkReferences": {},
  "deployedLinkReferences": {}
}